{
  "_format": "hh-sol-artifact-1",
  "contractName": "Staking",
  "sourceName": "contracts/Staking.sol",
  "abi": [
    {
      "inputs": [],
      "stateMutability": "nonpayable",
      "type": "constructor"
    },
    {
      "anonymous": false,
      "inputs": [
        {
          "indexed": true,
          "internalType": "address",
          "name": "owner",
          "type": "address"
        },
        {
          "indexed": true,
          "internalType": "address",
          "name": "spender",
          "type": "address"
        },
        {
          "indexed": false,
          "internalType": "uint256",
          "name": "value",
          "type": "uint256"
        }
      ],
      "name": "Approval",
      "type": "event"
    },
    {
      "anonymous": false,
      "inputs": [
        {
          "indexed": true,
          "internalType": "address",
          "name": "previousOwner",
          "type": "address"
        },
        {
          "indexed": true,
          "internalType": "address",
          "name": "newOwner",
          "type": "address"
        }
      ],
      "name": "OwnershipTransferred",
      "type": "event"
    },
    {
      "anonymous": false,
      "inputs": [
        {
          "indexed": true,
          "internalType": "address",
          "name": "from",
          "type": "address"
        },
        {
          "indexed": true,
          "internalType": "address",
          "name": "to",
          "type": "address"
        },
        {
          "indexed": false,
          "internalType": "uint256",
          "name": "value",
          "type": "uint256"
        }
      ],
      "name": "Transfer",
      "type": "event"
    },
    {
      "anonymous": false,
      "inputs": [
        {
          "indexed": false,
          "internalType": "address",
          "name": "account",
          "type": "address"
        },
        {
          "indexed": false,
          "internalType": "uint256",
          "name": "value",
          "type": "uint256"
        }
      ],
      "name": "stakingBalanceUpdate",
      "type": "event"
    },
    {
      "anonymous": false,
      "inputs": [
        {
          "indexed": false,
          "internalType": "address",
          "name": "receiver",
          "type": "address"
        },
        {
          "indexed": false,
          "internalType": "uint256",
          "name": "amountMinted",
          "type": "uint256"
        }
      ],
      "name": "tokenMinted",
      "type": "event"
    },
    {
      "inputs": [
        {
          "internalType": "address",
          "name": "owner",
          "type": "address"
        },
        {
          "internalType": "address",
          "name": "spender",
          "type": "address"
        }
      ],
      "name": "allowance",
      "outputs": [
        {
          "internalType": "uint256",
          "name": "",
          "type": "uint256"
        }
      ],
      "stateMutability": "view",
      "type": "function"
    },
    {
      "inputs": [
        {
          "internalType": "address",
          "name": "spender",
          "type": "address"
        },
        {
          "internalType": "uint256",
          "name": "amount",
          "type": "uint256"
        }
      ],
      "name": "approve",
      "outputs": [
        {
          "internalType": "bool",
          "name": "",
          "type": "bool"
        }
      ],
      "stateMutability": "nonpayable",
      "type": "function"
    },
    {
      "inputs": [
        {
          "internalType": "address",
          "name": "account",
          "type": "address"
        }
      ],
      "name": "balanceOf",
      "outputs": [
        {
          "internalType": "uint256",
          "name": "",
          "type": "uint256"
        }
      ],
      "stateMutability": "view",
      "type": "function"
    },
    {
      "inputs": [],
      "name": "decimals",
      "outputs": [
        {
          "internalType": "uint8",
          "name": "",
          "type": "uint8"
        }
      ],
      "stateMutability": "view",
      "type": "function"
    },
    {
      "inputs": [
        {
          "internalType": "address",
          "name": "spender",
          "type": "address"
        },
        {
          "internalType": "uint256",
          "name": "subtractedValue",
          "type": "uint256"
        }
      ],
      "name": "decreaseAllowance",
      "outputs": [
        {
          "internalType": "bool",
          "name": "",
          "type": "bool"
        }
      ],
      "stateMutability": "nonpayable",
      "type": "function"
    },
    {
      "inputs": [
        {
          "internalType": "address",
          "name": "spender",
          "type": "address"
        },
        {
          "internalType": "uint256",
          "name": "addedValue",
          "type": "uint256"
        }
      ],
      "name": "increaseAllowance",
      "outputs": [
        {
          "internalType": "bool",
          "name": "",
          "type": "bool"
        }
      ],
      "stateMutability": "nonpayable",
      "type": "function"
    },
    {
      "inputs": [
        {
          "internalType": "address",
          "name": "to",
          "type": "address"
        },
        {
          "internalType": "uint256",
          "name": "amount",
          "type": "uint256"
        }
      ],
      "name": "mint",
      "outputs": [],
      "stateMutability": "nonpayable",
      "type": "function"
    },
    {
      "inputs": [],
      "name": "name",
      "outputs": [
        {
          "internalType": "string",
          "name": "",
          "type": "string"
        }
      ],
      "stateMutability": "view",
      "type": "function"
    },
    {
      "inputs": [],
      "name": "owner",
      "outputs": [
        {
          "internalType": "address",
          "name": "",
          "type": "address"
        }
      ],
      "stateMutability": "view",
      "type": "function"
    },
    {
      "inputs": [],
      "name": "renounceOwnership",
      "outputs": [],
      "stateMutability": "nonpayable",
      "type": "function"
    },
    {
      "inputs": [
        {
          "internalType": "uint256",
          "name": "amount",
          "type": "uint256"
        }
      ],
      "name": "stake",
      "outputs": [],
      "stateMutability": "nonpayable",
      "type": "function"
    },
    {
      "inputs": [
        {
          "internalType": "address",
          "name": "",
          "type": "address"
        }
      ],
      "name": "stakingBalance",
      "outputs": [
        {
          "internalType": "uint256",
          "name": "",
          "type": "uint256"
        }
      ],
      "stateMutability": "view",
      "type": "function"
    },
    {
      "inputs": [],
      "name": "symbol",
      "outputs": [
        {
          "internalType": "string",
          "name": "",
          "type": "string"
        }
      ],
      "stateMutability": "view",
      "type": "function"
    },
    {
      "inputs": [],
      "name": "totalSupply",
      "outputs": [
        {
          "internalType": "uint256",
          "name": "",
          "type": "uint256"
        }
      ],
      "stateMutability": "view",
      "type": "function"
    },
    {
      "inputs": [
        {
          "internalType": "address",
          "name": "to",
          "type": "address"
        },
        {
          "internalType": "uint256",
          "name": "amount",
          "type": "uint256"
        }
      ],
      "name": "transfer",
      "outputs": [
        {
          "internalType": "bool",
          "name": "",
          "type": "bool"
        }
      ],
      "stateMutability": "nonpayable",
      "type": "function"
    },
    {
      "inputs": [
        {
          "internalType": "address",
          "name": "from",
          "type": "address"
        },
        {
          "internalType": "address",
          "name": "to",
          "type": "address"
        },
        {
          "internalType": "uint256",
          "name": "amount",
          "type": "uint256"
        }
      ],
      "name": "transferFrom",
      "outputs": [
        {
          "internalType": "bool",
          "name": "",
          "type": "bool"
        }
      ],
      "stateMutability": "nonpayable",
      "type": "function"
    },
    {
      "inputs": [
        {
          "internalType": "address",
          "name": "newOwner",
          "type": "address"
        }
      ],
      "name": "transferOwnership",
      "outputs": [],
      "stateMutability": "nonpayable",
      "type": "function"
    },
    {
      "inputs": [
        {
          "internalType": "contract IERC20",
          "name": "token",
          "type": "address"
        },
        {
          "internalType": "uint256",
          "name": "amount",
          "type": "uint256"
        }
      ],
      "name": "unstake",
      "outputs": [],
      "stateMutability": "nonpayable",
      "type": "function"
    },
    {
      "stateMutability": "payable",
      "type": "receive"
    }
  ],
  "bytecode": "0x60806040523480156200001157600080fd5b506040518060400160405280600881526020017f646a65546f6b656e0000000000000000000000000000000000000000000000008152506040518060400160405280600381526020017f44544b000000000000000000000000000000000000000000000000000000000081525081600390816200008f91906200059e565b508060049081620000a191906200059e565b505050620000c4620000b8620000df60201b60201c565b620000e760201b60201c565b620000d933620f4240620001ad60201b60201c565b620007a0565b600033905090565b6000600560009054906101000a900473ffffffffffffffffffffffffffffffffffffffff16905081600560006101000a81548173ffffffffffffffffffffffffffffffffffffffff021916908373ffffffffffffffffffffffffffffffffffffffff1602179055508173ffffffffffffffffffffffffffffffffffffffff168173ffffffffffffffffffffffffffffffffffffffff167f8be0079c531659141344cd1fd0a4f28419497f9722a3daafe3b4186f6b6457e060405160405180910390a35050565b600073ffffffffffffffffffffffffffffffffffffffff168273ffffffffffffffffffffffffffffffffffffffff16036200021f576040517f08c379a00000000000000000000000000000000000000000000000000000000081526004016200021690620006e6565b60405180910390fd5b62000233600083836200031a60201b60201c565b806002600082825462000247919062000737565b92505081905550806000808473ffffffffffffffffffffffffffffffffffffffff1673ffffffffffffffffffffffffffffffffffffffff168152602001908152602001600020600082825401925050819055508173ffffffffffffffffffffffffffffffffffffffff16600073ffffffffffffffffffffffffffffffffffffffff167fddf252ad1be2c89b69c2b068fc378daa952ba7f163c4a11628f55a4df523b3ef83604051620002fa919062000783565b60405180910390a362000316600083836200031f60201b60201c565b5050565b505050565b505050565b600081519050919050565b7f4e487b7100000000000000000000000000000000000000000000000000000000600052604160045260246000fd5b7f4e487b7100000000000000000000000000000000000000000000000000000000600052602260045260246000fd5b60006002820490506001821680620003a657607f821691505b602082108103620003bc57620003bb6200035e565b5b50919050565b60008190508160005260206000209050919050565b60006020601f8301049050919050565b600082821b905092915050565b600060088302620004267fffffffffffffffffffffffffffffffffffffffffffffffffffffffffffffffff82620003e7565b620004328683620003e7565b95508019841693508086168417925050509392505050565b6000819050919050565b6000819050919050565b60006200047f6200047962000473846200044a565b62000454565b6200044a565b9050919050565b6000819050919050565b6200049b836200045e565b620004b3620004aa8262000486565b848454620003f4565b825550505050565b600090565b620004ca620004bb565b620004d781848462000490565b505050565b5b81811015620004ff57620004f3600082620004c0565b600181019050620004dd565b5050565b601f8211156200054e576200051881620003c2565b6200052384620003d7565b8101602085101562000533578190505b6200054b6200054285620003d7565b830182620004dc565b50505b505050565b600082821c905092915050565b6000620005736000198460080262000553565b1980831691505092915050565b60006200058e838362000560565b9150826002028217905092915050565b620005a98262000324565b67ffffffffffffffff811115620005c557620005c46200032f565b5b620005d182546200038d565b620005de82828562000503565b600060209050601f83116001811462000616576000841562000601578287015190505b6200060d858262000580565b8655506200067d565b601f1984166200062686620003c2565b60005b82811015620006505784890151825560018201915060208501945060208101905062000629565b868310156200067057848901516200066c601f89168262000560565b8355505b6001600288020188555050505b505050505050565b600082825260208201905092915050565b7f45524332303a206d696e7420746f20746865207a65726f206164647265737300600082015250565b6000620006ce601f8362000685565b9150620006db8262000696565b602082019050919050565b600060208201905081810360008301526200070181620006bf565b9050919050565b7f4e487b7100000000000000000000000000000000000000000000000000000000600052601160045260246000fd5b600062000744826200044a565b915062000751836200044a565b92508282019050808211156200076c576200076b62000708565b5b92915050565b6200077d816200044a565b82525050565b60006020820190506200079a600083018462000772565b92915050565b61231d80620007b06000396000f3fe60806040526004361061010d5760003560e01c8063715018a611610095578063a694fc3a11610064578063a694fc3a1461039e578063a9059cbb146103c7578063c2a672e014610404578063dd62ed3e1461042d578063f2fde38b1461046a57610114565b8063715018a6146102f45780638da5cb5b1461030b57806395d89b4114610336578063a457c2d71461036157610114565b8063313ce567116100dc578063313ce567146101e9578063395093511461021457806340c10f191461025157806345bc78ab1461027a57806370a08231146102b757610114565b806306fdde0314610119578063095ea7b31461014457806318160ddd1461018157806323b872dd146101ac57610114565b3661011457005b600080fd5b34801561012557600080fd5b5061012e610493565b60405161013b91906116ab565b60405180910390f35b34801561015057600080fd5b5061016b60048036038101906101669190611766565b610525565b60405161017891906117c1565b60405180910390f35b34801561018d57600080fd5b50610196610548565b6040516101a391906117eb565b60405180910390f35b3480156101b857600080fd5b506101d360048036038101906101ce9190611806565b610552565b6040516101e091906117c1565b60405180910390f35b3480156101f557600080fd5b506101fe610581565b60405161020b9190611875565b60405180910390f35b34801561022057600080fd5b5061023b60048036038101906102369190611766565b61058a565b60405161024891906117c1565b60405180910390f35b34801561025d57600080fd5b5061027860048036038101906102739190611766565b6105c1565b005b34801561028657600080fd5b506102a1600480360381019061029c9190611890565b610610565b6040516102ae91906117eb565b60405180910390f35b3480156102c357600080fd5b506102de60048036038101906102d99190611890565b610628565b6040516102eb91906117eb565b60405180910390f35b34801561030057600080fd5b50610309610670565b005b34801561031757600080fd5b50610320610684565b60405161032d91906118cc565b60405180910390f35b34801561034257600080fd5b5061034b6106ae565b60405161035891906116ab565b60405180910390f35b34801561036d57600080fd5b5061038860048036038101906103839190611766565b610740565b60405161039591906117c1565b60405180910390f35b3480156103aa57600080fd5b506103c560048036038101906103c091906118e7565b6107b7565b005b3480156103d357600080fd5b506103ee60048036038101906103e99190611766565b6108de565b6040516103fb91906117c1565b60405180910390f35b34801561041057600080fd5b5061042b60048036038101906104269190611952565b610901565b005b34801561043957600080fd5b50610454600480360381019061044f9190611992565b610a80565b60405161046191906117eb565b60405180910390f35b34801561047657600080fd5b50610491600480360381019061048c9190611890565b610b07565b005b6060600380546104a290611a01565b80601f01602080910402602001604051908101604052809291908181526020018280546104ce90611a01565b801561051b5780601f106104f05761010080835404028352916020019161051b565b820191906000526020600020905b8154815290600101906020018083116104fe57829003601f168201915b5050505050905090565b600080610530610b8a565b905061053d818585610b92565b600191505092915050565b6000600254905090565b60008061055d610b8a565b905061056a858285610d5b565b610575858585610de7565b60019150509392505050565b60006012905090565b600080610595610b8a565b90506105b68185856105a78589610a80565b6105b19190611a61565b610b92565b600191505092915050565b6105c961105d565b6105d382826110db565b7f2d8eb9b9558d4b5ef1d238622692f6156d5822009340e26ab15fac05d64c12f08282604051610604929190611a95565b60405180910390a15050565b60066020528060005260406000206000915090505481565b60008060008373ffffffffffffffffffffffffffffffffffffffff1673ffffffffffffffffffffffffffffffffffffffff168152602001908152602001600020549050919050565b61067861105d565b6106826000611231565b565b6000600560009054906101000a900473ffffffffffffffffffffffffffffffffffffffff16905090565b6060600480546106bd90611a01565b80601f01602080910402602001604051908101604052809291908181526020018280546106e990611a01565b80156107365780601f1061070b57610100808354040283529160200191610736565b820191906000526020600020905b81548152906001019060200180831161071957829003601f168201915b5050505050905090565b60008061074b610b8a565b905060006107598286610a80565b90508381101561079e576040517f08c379a000000000000000000000000000000000000000000000000000000000815260040161079590611b30565b60405180910390fd5b6107ab8286868403610b92565b60019250505092915050565b806107c133610628565b1015610802576040517f08c379a00000000000000000000000000000000000000000000000000000000081526004016107f990611b9c565b60405180910390fd5b61080c30826108de565b5080600660003373ffffffffffffffffffffffffffffffffffffffff1673ffffffffffffffffffffffffffffffffffffffff168152602001908152602001600020600082825461085c9190611a61565b925050819055507fc5d58a13b12e3f82ded057a6095d1f70172889d9fa621c4d04a4a38028a5c02e33600660003373ffffffffffffffffffffffffffffffffffffffff1673ffffffffffffffffffffffffffffffffffffffff168152602001908152602001600020546040516108d3929190611a95565b60405180910390a150565b6000806108e9610b8a565b90506108f6818585610de7565b600191505092915050565b80600660003373ffffffffffffffffffffffffffffffffffffffff1673ffffffffffffffffffffffffffffffffffffffff168152602001908152602001600020541015610983576040517f08c379a000000000000000000000000000000000000000000000000000000000815260040161097a90611b9c565b60405180910390fd5b6109ae33828473ffffffffffffffffffffffffffffffffffffffff166112f79092919063ffffffff16565b80600660003373ffffffffffffffffffffffffffffffffffffffff1673ffffffffffffffffffffffffffffffffffffffff16815260200190815260200160002060008282546109fd9190611bbc565b925050819055507fc5d58a13b12e3f82ded057a6095d1f70172889d9fa621c4d04a4a38028a5c02e33600660003373ffffffffffffffffffffffffffffffffffffffff1673ffffffffffffffffffffffffffffffffffffffff16815260200190815260200160002054604051610a74929190611a95565b60405180910390a15050565b6000600160008473ffffffffffffffffffffffffffffffffffffffff1673ffffffffffffffffffffffffffffffffffffffff16815260200190815260200160002060008373ffffffffffffffffffffffffffffffffffffffff1673ffffffffffffffffffffffffffffffffffffffff16815260200190815260200160002054905092915050565b610b0f61105d565b600073ffffffffffffffffffffffffffffffffffffffff168173ffffffffffffffffffffffffffffffffffffffff1603610b7e576040517f08c379a0000000000000000000000000000000000000000000000000000000008152600401610b7590611c62565b60405180910390fd5b610b8781611231565b50565b600033905090565b600073ffffffffffffffffffffffffffffffffffffffff168373ffffffffffffffffffffffffffffffffffffffff1603610c01576040517f08c379a0000000000000000000000000000000000000000000000000000000008152600401610bf890611cf4565b60405180910390fd5b600073ffffffffffffffffffffffffffffffffffffffff168273ffffffffffffffffffffffffffffffffffffffff1603610c70576040517f08c379a0000000000000000000000000000000000000000000000000000000008152600401610c6790611d86565b60405180910390fd5b80600160008573ffffffffffffffffffffffffffffffffffffffff1673ffffffffffffffffffffffffffffffffffffffff16815260200190815260200160002060008473ffffffffffffffffffffffffffffffffffffffff1673ffffffffffffffffffffffffffffffffffffffff168152602001908152602001600020819055508173ffffffffffffffffffffffffffffffffffffffff168373ffffffffffffffffffffffffffffffffffffffff167f8c5be1e5ebec7d5bd14f71427d1e84f3dd0314c0f7b2291e5b200ac8c7c3b92583604051610d4e91906117eb565b60405180910390a3505050565b6000610d678484610a80565b90507fffffffffffffffffffffffffffffffffffffffffffffffffffffffffffffffff8114610de15781811015610dd3576040517f08c379a0000000000000000000000000000000000000000000000000000000008152600401610dca90611df2565b60405180910390fd5b610de08484848403610b92565b5b50505050565b600073ffffffffffffffffffffffffffffffffffffffff168373ffffffffffffffffffffffffffffffffffffffff1603610e56576040517f08c379a0000000000000000000000000000000000000000000000000000000008152600401610e4d90611e84565b60405180910390fd5b600073ffffffffffffffffffffffffffffffffffffffff168273ffffffffffffffffffffffffffffffffffffffff1603610ec5576040517f08c379a0000000000000000000000000000000000000000000000000000000008152600401610ebc90611f16565b60405180910390fd5b610ed083838361137d565b60008060008573ffffffffffffffffffffffffffffffffffffffff1673ffffffffffffffffffffffffffffffffffffffff16815260200190815260200160002054905081811015610f56576040517f08c379a0000000000000000000000000000000000000000000000000000000008152600401610f4d90611fa8565b60405180910390fd5b8181036000808673ffffffffffffffffffffffffffffffffffffffff1673ffffffffffffffffffffffffffffffffffffffff16815260200190815260200160002081905550816000808573ffffffffffffffffffffffffffffffffffffffff1673ffffffffffffffffffffffffffffffffffffffff168152602001908152602001600020600082825401925050819055508273ffffffffffffffffffffffffffffffffffffffff168473ffffffffffffffffffffffffffffffffffffffff167fddf252ad1be2c89b69c2b068fc378daa952ba7f163c4a11628f55a4df523b3ef8460405161104491906117eb565b60405180910390a3611057848484611382565b50505050565b611065610b8a565b73ffffffffffffffffffffffffffffffffffffffff16611083610684565b73ffffffffffffffffffffffffffffffffffffffff16146110d9576040517f08c379a00000000000000000000000000000000000000000000000000000000081526004016110d090612014565b60405180910390fd5b565b600073ffffffffffffffffffffffffffffffffffffffff168273ffffffffffffffffffffffffffffffffffffffff160361114a576040517f08c379a000000000000000000000000000000000000000000000000000000000815260040161114190612080565b60405180910390fd5b6111566000838361137d565b80600260008282546111689190611a61565b92505081905550806000808473ffffffffffffffffffffffffffffffffffffffff1673ffffffffffffffffffffffffffffffffffffffff168152602001908152602001600020600082825401925050819055508173ffffffffffffffffffffffffffffffffffffffff16600073ffffffffffffffffffffffffffffffffffffffff167fddf252ad1be2c89b69c2b068fc378daa952ba7f163c4a11628f55a4df523b3ef8360405161121991906117eb565b60405180910390a361122d60008383611382565b5050565b6000600560009054906101000a900473ffffffffffffffffffffffffffffffffffffffff16905081600560006101000a81548173ffffffffffffffffffffffffffffffffffffffff021916908373ffffffffffffffffffffffffffffffffffffffff1602179055508173ffffffffffffffffffffffffffffffffffffffff168173ffffffffffffffffffffffffffffffffffffffff167f8be0079c531659141344cd1fd0a4f28419497f9722a3daafe3b4186f6b6457e060405160405180910390a35050565b6113788363a9059cbb60e01b8484604051602401611316929190611a95565b604051602081830303815290604052907bffffffffffffffffffffffffffffffffffffffffffffffffffffffff19166020820180517bffffffffffffffffffffffffffffffffffffffffffffffffffffffff8381831617835250505050611387565b505050565b505050565b505050565b60006113e9826040518060400160405280602081526020017f5361666545524332303a206c6f772d6c6576656c2063616c6c206661696c65648152508573ffffffffffffffffffffffffffffffffffffffff1661144e9092919063ffffffff16565b9050600081511115611449578080602001905181019061140991906120cc565b611448576040517f08c379a000000000000000000000000000000000000000000000000000000000815260040161143f9061216b565b60405180910390fd5b5b505050565b606061145d8484600085611466565b90509392505050565b6060824710156114ab576040517f08c379a00000000000000000000000000000000000000000000000000000000081526004016114a2906121fd565b60405180910390fd5b6000808673ffffffffffffffffffffffffffffffffffffffff1685876040516114d49190612264565b60006040518083038185875af1925050503d8060008114611511576040519150601f19603f3d011682016040523d82523d6000602084013e611516565b606091505b509150915061152787838387611533565b92505050949350505050565b6060831561159557600083510361158d5761154d856115a8565b61158c576040517f08c379a0000000000000000000000000000000000000000000000000000000008152600401611583906122c7565b60405180910390fd5b5b8290506115a0565b61159f83836115cb565b5b949350505050565b6000808273ffffffffffffffffffffffffffffffffffffffff163b119050919050565b6000825111156115de5781518083602001fd5b806040517f08c379a000000000000000000000000000000000000000000000000000000000815260040161161291906116ab565b60405180910390fd5b600081519050919050565b600082825260208201905092915050565b60005b8381101561165557808201518184015260208101905061163a565b60008484015250505050565b6000601f19601f8301169050919050565b600061167d8261161b565b6116878185611626565b9350611697818560208601611637565b6116a081611661565b840191505092915050565b600060208201905081810360008301526116c58184611672565b905092915050565b600080fd5b600073ffffffffffffffffffffffffffffffffffffffff82169050919050565b60006116fd826116d2565b9050919050565b61170d816116f2565b811461171857600080fd5b50565b60008135905061172a81611704565b92915050565b6000819050919050565b61174381611730565b811461174e57600080fd5b50565b6000813590506117608161173a565b92915050565b6000806040838503121561177d5761177c6116cd565b5b600061178b8582860161171b565b925050602061179c85828601611751565b9150509250929050565b60008115159050919050565b6117bb816117a6565b82525050565b60006020820190506117d660008301846117b2565b92915050565b6117e581611730565b82525050565b600060208201905061180060008301846117dc565b92915050565b60008060006060848603121561181f5761181e6116cd565b5b600061182d8682870161171b565b935050602061183e8682870161171b565b925050604061184f86828701611751565b9150509250925092565b600060ff82169050919050565b61186f81611859565b82525050565b600060208201905061188a6000830184611866565b92915050565b6000602082840312156118a6576118a56116cd565b5b60006118b48482850161171b565b91505092915050565b6118c6816116f2565b82525050565b60006020820190506118e160008301846118bd565b92915050565b6000602082840312156118fd576118fc6116cd565b5b600061190b84828501611751565b91505092915050565b600061191f826116f2565b9050919050565b61192f81611914565b811461193a57600080fd5b50565b60008135905061194c81611926565b92915050565b60008060408385031215611969576119686116cd565b5b60006119778582860161193d565b925050602061198885828601611751565b9150509250929050565b600080604083850312156119a9576119a86116cd565b5b60006119b78582860161171b565b92505060206119c88582860161171b565b9150509250929050565b7f4e487b7100000000000000000000000000000000000000000000000000000000600052602260045260246000fd5b60006002820490506001821680611a1957607f821691505b602082108103611a2c57611a2b6119d2565b5b50919050565b7f4e487b7100000000000000000000000000000000000000000000000000000000600052601160045260246000fd5b6000611a6c82611730565b9150611a7783611730565b9250828201905080821115611a8f57611a8e611a32565b5b92915050565b6000604082019050611aaa60008301856118bd565b611ab760208301846117dc565b9392505050565b7f45524332303a2064656372656173656420616c6c6f77616e63652062656c6f7760008201527f207a65726f000000000000000000000000000000000000000000000000000000602082015250565b6000611b1a602583611626565b9150611b2582611abe565b604082019050919050565b60006020820190508181036000830152611b4981611b0d565b9050919050565b7f6e6f7420656e6f75676820746f6b656e00000000000000000000000000000000600082015250565b6000611b86601083611626565b9150611b9182611b50565b602082019050919050565b60006020820190508181036000830152611bb581611b79565b9050919050565b6000611bc782611730565b9150611bd283611730565b9250828203905081811115611bea57611be9611a32565b5b92915050565b7f4f776e61626c653a206e6577206f776e657220697320746865207a65726f206160008201527f6464726573730000000000000000000000000000000000000000000000000000602082015250565b6000611c4c602683611626565b9150611c5782611bf0565b604082019050919050565b60006020820190508181036000830152611c7b81611c3f565b9050919050565b7f45524332303a20617070726f76652066726f6d20746865207a65726f2061646460008201527f7265737300000000000000000000000000000000000000000000000000000000602082015250565b6000611cde602483611626565b9150611ce982611c82565b604082019050919050565b60006020820190508181036000830152611d0d81611cd1565b9050919050565b7f45524332303a20617070726f766520746f20746865207a65726f20616464726560008201527f7373000000000000000000000000000000000000000000000000000000000000602082015250565b6000611d70602283611626565b9150611d7b82611d14565b604082019050919050565b60006020820190508181036000830152611d9f81611d63565b9050919050565b7f45524332303a20696e73756666696369656e7420616c6c6f77616e6365000000600082015250565b6000611ddc601d83611626565b9150611de782611da6565b602082019050919050565b60006020820190508181036000830152611e0b81611dcf565b9050919050565b7f45524332303a207472616e736665722066726f6d20746865207a65726f20616460008201527f6472657373000000000000000000000000000000000000000000000000000000602082015250565b6000611e6e602583611626565b9150611e7982611e12565b604082019050919050565b60006020820190508181036000830152611e9d81611e61565b9050919050565b7f45524332303a207472616e7366657220746f20746865207a65726f206164647260008201527f6573730000000000000000000000000000000000000000000000000000000000602082015250565b6000611f00602383611626565b9150611f0b82611ea4565b604082019050919050565b60006020820190508181036000830152611f2f81611ef3565b9050919050565b7f45524332303a207472616e7366657220616d6f756e742065786365656473206260008201527f616c616e63650000000000000000000000000000000000000000000000000000602082015250565b6000611f92602683611626565b9150611f9d82611f36565b604082019050919050565b60006020820190508181036000830152611fc181611f85565b9050919050565b7f4f776e61626c653a2063616c6c6572206973206e6f7420746865206f776e6572600082015250565b6000611ffe602083611626565b915061200982611fc8565b602082019050919050565b6000602082019050818103600083015261202d81611ff1565b9050919050565b7f45524332303a206d696e7420746f20746865207a65726f206164647265737300600082015250565b600061206a601f83611626565b915061207582612034565b602082019050919050565b600060208201905081810360008301526120998161205d565b9050919050565b6120a9816117a6565b81146120b457600080fd5b50565b6000815190506120c6816120a0565b92915050565b6000602082840312156120e2576120e16116cd565b5b60006120f0848285016120b7565b91505092915050565b7f5361666545524332303a204552433230206f7065726174696f6e20646964206e60008201527f6f74207375636365656400000000000000000000000000000000000000000000602082015250565b6000612155602a83611626565b9150612160826120f9565b604082019050919050565b6000602082019050818103600083015261218481612148565b9050919050565b7f416464726573733a20696e73756666696369656e742062616c616e636520666f60008201527f722063616c6c0000000000000000000000000000000000000000000000000000602082015250565b60006121e7602683611626565b91506121f28261218b565b604082019050919050565b60006020820190508181036000830152612216816121da565b9050919050565b600081519050919050565b600081905092915050565b600061223e8261221d565b6122488185612228565b9350612258818560208601611637565b80840191505092915050565b60006122708284612233565b915081905092915050565b7f416464726573733a2063616c6c20746f206e6f6e2d636f6e7472616374000000600082015250565b60006122b1601d83611626565b91506122bc8261227b565b602082019050919050565b600060208201905081810360008301526122e0816122a4565b905091905056fea26469706673582212201033202f6c195675c3582d273c7623e04c04c25922e531b9a2a8a9a3a3ff944764736f6c63430008110033",
  "linkReferences": {},
  "deployedLinkReferences": {}
}