{
  "_format": "hh-sol-artifact-1",
  "contractName": "Staking",
  "sourceName": "contracts/Staking.sol",
  "abi": [
    {
      "inputs": [],
      "stateMutability": "nonpayable",
      "type": "constructor"
    },
    {
      "anonymous": false,
      "inputs": [
        {
          "indexed": true,
          "internalType": "address",
          "name": "owner",
          "type": "address"
        },
        {
          "indexed": true,
          "internalType": "address",
          "name": "spender",
          "type": "address"
        },
        {
          "indexed": false,
          "internalType": "uint256",
          "name": "value",
          "type": "uint256"
        }
      ],
      "name": "Approval",
      "type": "event"
    },
    {
      "anonymous": false,
      "inputs": [
        {
          "indexed": true,
          "internalType": "address",
          "name": "previousOwner",
          "type": "address"
        },
        {
          "indexed": true,
          "internalType": "address",
          "name": "newOwner",
          "type": "address"
        }
      ],
      "name": "OwnershipTransferred",
      "type": "event"
    },
    {
      "anonymous": false,
      "inputs": [
        {
          "indexed": true,
          "internalType": "address",
          "name": "from",
          "type": "address"
        },
        {
          "indexed": true,
          "internalType": "address",
          "name": "to",
          "type": "address"
        },
        {
          "indexed": false,
          "internalType": "uint256",
          "name": "value",
          "type": "uint256"
        }
      ],
      "name": "Transfer",
      "type": "event"
    },
    {
      "anonymous": false,
      "inputs": [
        {
          "indexed": false,
          "internalType": "address",
          "name": "account",
          "type": "address"
        },
        {
          "indexed": false,
          "internalType": "uint256",
          "name": "value",
          "type": "uint256"
        }
      ],
      "name": "stakingBalanceUpdate",
      "type": "event"
    },
    {
      "anonymous": false,
      "inputs": [
        {
          "indexed": false,
          "internalType": "address",
          "name": "receiver",
          "type": "address"
        },
        {
          "indexed": false,
          "internalType": "uint256",
          "name": "amountMinted",
          "type": "uint256"
        }
      ],
      "name": "tokenMinted",
      "type": "event"
    },
    {
      "inputs": [
        {
          "internalType": "address",
          "name": "owner",
          "type": "address"
        },
        {
          "internalType": "address",
          "name": "spender",
          "type": "address"
        }
      ],
      "name": "allowance",
      "outputs": [
        {
          "internalType": "uint256",
          "name": "",
          "type": "uint256"
        }
      ],
      "stateMutability": "view",
      "type": "function"
    },
    {
      "inputs": [
        {
          "internalType": "address",
          "name": "spender",
          "type": "address"
        },
        {
          "internalType": "uint256",
          "name": "amount",
          "type": "uint256"
        }
      ],
      "name": "approve",
      "outputs": [
        {
          "internalType": "bool",
          "name": "",
          "type": "bool"
        }
      ],
      "stateMutability": "nonpayable",
      "type": "function"
    },
    {
      "inputs": [
        {
          "internalType": "address",
          "name": "account",
          "type": "address"
        }
      ],
      "name": "balanceOf",
      "outputs": [
        {
          "internalType": "uint256",
          "name": "",
          "type": "uint256"
        }
      ],
      "stateMutability": "view",
      "type": "function"
    },
    {
      "inputs": [],
      "name": "decimals",
      "outputs": [
        {
          "internalType": "uint8",
          "name": "",
          "type": "uint8"
        }
      ],
      "stateMutability": "view",
      "type": "function"
    },
    {
      "inputs": [
        {
          "internalType": "address",
          "name": "spender",
          "type": "address"
        },
        {
          "internalType": "uint256",
          "name": "subtractedValue",
          "type": "uint256"
        }
      ],
      "name": "decreaseAllowance",
      "outputs": [
        {
          "internalType": "bool",
          "name": "",
          "type": "bool"
        }
      ],
      "stateMutability": "nonpayable",
      "type": "function"
    },
    {
      "inputs": [
        {
          "internalType": "address",
          "name": "spender",
          "type": "address"
        },
        {
          "internalType": "uint256",
          "name": "addedValue",
          "type": "uint256"
        }
      ],
      "name": "increaseAllowance",
      "outputs": [
        {
          "internalType": "bool",
          "name": "",
          "type": "bool"
        }
      ],
      "stateMutability": "nonpayable",
      "type": "function"
    },
    {
      "inputs": [
        {
          "internalType": "address",
          "name": "to",
          "type": "address"
        },
        {
          "internalType": "uint256",
          "name": "amount",
          "type": "uint256"
        }
      ],
      "name": "mint",
      "outputs": [],
      "stateMutability": "nonpayable",
      "type": "function"
    },
    {
      "inputs": [],
      "name": "name",
      "outputs": [
        {
          "internalType": "string",
          "name": "",
          "type": "string"
        }
      ],
      "stateMutability": "view",
      "type": "function"
    },
    {
      "inputs": [],
      "name": "owner",
      "outputs": [
        {
          "internalType": "address",
          "name": "",
          "type": "address"
        }
      ],
      "stateMutability": "view",
      "type": "function"
    },
    {
      "inputs": [],
      "name": "renounceOwnership",
      "outputs": [],
      "stateMutability": "nonpayable",
      "type": "function"
    },
    {
      "inputs": [
        {
          "internalType": "uint256",
          "name": "amount",
          "type": "uint256"
        }
      ],
      "name": "stake",
      "outputs": [],
      "stateMutability": "nonpayable",
      "type": "function"
    },
    {
      "inputs": [
        {
          "internalType": "address",
          "name": "",
          "type": "address"
        }
      ],
      "name": "stakingBalance",
      "outputs": [
        {
          "internalType": "uint256",
          "name": "",
          "type": "uint256"
        }
      ],
      "stateMutability": "view",
      "type": "function"
    },
    {
      "inputs": [],
      "name": "symbol",
      "outputs": [
        {
          "internalType": "string",
          "name": "",
          "type": "string"
        }
      ],
      "stateMutability": "view",
      "type": "function"
    },
    {
      "inputs": [],
      "name": "totalSupply",
      "outputs": [
        {
          "internalType": "uint256",
          "name": "",
          "type": "uint256"
        }
      ],
      "stateMutability": "view",
      "type": "function"
    },
    {
      "inputs": [
        {
          "internalType": "address",
          "name": "to",
          "type": "address"
        },
        {
          "internalType": "uint256",
          "name": "amount",
          "type": "uint256"
        }
      ],
      "name": "transfer",
      "outputs": [
        {
          "internalType": "bool",
          "name": "",
          "type": "bool"
        }
      ],
      "stateMutability": "nonpayable",
      "type": "function"
    },
    {
      "inputs": [
        {
          "internalType": "address",
          "name": "from",
          "type": "address"
        },
        {
          "internalType": "address",
          "name": "to",
          "type": "address"
        },
        {
          "internalType": "uint256",
          "name": "amount",
          "type": "uint256"
        }
      ],
      "name": "transferFrom",
      "outputs": [
        {
          "internalType": "bool",
          "name": "",
          "type": "bool"
        }
      ],
      "stateMutability": "nonpayable",
      "type": "function"
    },
    {
      "inputs": [
        {
          "internalType": "address",
          "name": "newOwner",
          "type": "address"
        }
      ],
      "name": "transferOwnership",
      "outputs": [],
      "stateMutability": "nonpayable",
      "type": "function"
    },
    {
      "inputs": [
        {
          "internalType": "contract IERC20",
          "name": "token",
          "type": "address"
        },
        {
          "internalType": "uint256",
          "name": "amount",
          "type": "uint256"
        }
      ],
      "name": "unstake",
      "outputs": [],
      "stateMutability": "nonpayable",
      "type": "function"
    },
    {
      "stateMutability": "payable",
      "type": "receive"
    }
  ],
  "bytecode": "0x60806040523480156200001157600080fd5b506040518060400160405280600881526020017f646a65546f6b656e0000000000000000000000000000000000000000000000008152506040518060400160405280600381526020017f44544b000000000000000000000000000000000000000000000000000000000081525081600390816200008f9190620005f5565b508060049081620000a19190620005f5565b505050620000c4620000b86200013360201b60201c565b6200013b60201b60201c565b620000e06778ea3bdae133d49960c01b6200020160201b60201c565b620000fc679ffedae7c45f5ffc60c01b6200020160201b60201c565b6200011867072a344d5102603160c01b6200020160201b60201c565b6200012d33620f42406200020460201b60201c565b620007f7565b600033905090565b6000600560009054906101000a900473ffffffffffffffffffffffffffffffffffffffff16905081600560006101000a81548173ffffffffffffffffffffffffffffffffffffffff021916908373ffffffffffffffffffffffffffffffffffffffff1602179055508173ffffffffffffffffffffffffffffffffffffffff168173ffffffffffffffffffffffffffffffffffffffff167f8be0079c531659141344cd1fd0a4f28419497f9722a3daafe3b4186f6b6457e060405160405180910390a35050565b50565b600073ffffffffffffffffffffffffffffffffffffffff168273ffffffffffffffffffffffffffffffffffffffff160362000276576040517f08c379a00000000000000000000000000000000000000000000000000000000081526004016200026d906200073d565b60405180910390fd5b6200028a600083836200037160201b60201c565b80600260008282546200029e91906200078e565b92505081905550806000808473ffffffffffffffffffffffffffffffffffffffff1673ffffffffffffffffffffffffffffffffffffffff168152602001908152602001600020600082825401925050819055508173ffffffffffffffffffffffffffffffffffffffff16600073ffffffffffffffffffffffffffffffffffffffff167fddf252ad1be2c89b69c2b068fc378daa952ba7f163c4a11628f55a4df523b3ef83604051620003519190620007da565b60405180910390a36200036d600083836200037660201b60201c565b5050565b505050565b505050565b600081519050919050565b7f4e487b7100000000000000000000000000000000000000000000000000000000600052604160045260246000fd5b7f4e487b7100000000000000000000000000000000000000000000000000000000600052602260045260246000fd5b60006002820490506001821680620003fd57607f821691505b602082108103620004135762000412620003b5565b5b50919050565b60008190508160005260206000209050919050565b60006020601f8301049050919050565b600082821b905092915050565b6000600883026200047d7fffffffffffffffffffffffffffffffffffffffffffffffffffffffffffffffff826200043e565b6200048986836200043e565b95508019841693508086168417925050509392505050565b6000819050919050565b6000819050919050565b6000620004d6620004d0620004ca84620004a1565b620004ab565b620004a1565b9050919050565b6000819050919050565b620004f283620004b5565b6200050a6200050182620004dd565b8484546200044b565b825550505050565b600090565b6200052162000512565b6200052e818484620004e7565b505050565b5b8181101562000556576200054a60008262000517565b60018101905062000534565b5050565b601f821115620005a5576200056f8162000419565b6200057a846200042e565b810160208510156200058a578190505b620005a262000599856200042e565b83018262000533565b50505b505050565b600082821c905092915050565b6000620005ca60001984600802620005aa565b1980831691505092915050565b6000620005e58383620005b7565b9150826002028217905092915050565b62000600826200037b565b67ffffffffffffffff8111156200061c576200061b62000386565b5b620006288254620003e4565b620006358282856200055a565b600060209050601f8311600181146200066d576000841562000658578287015190505b620006648582620005d7565b865550620006d4565b601f1984166200067d8662000419565b60005b82811015620006a75784890151825560018201915060208501945060208101905062000680565b86831015620006c75784890151620006c3601f891682620005b7565b8355505b6001600288020188555050505b505050505050565b600082825260208201905092915050565b7f45524332303a206d696e7420746f20746865207a65726f206164647265737300600082015250565b600062000725601f83620006dc565b91506200073282620006ed565b602082019050919050565b60006020820190508181036000830152620007588162000716565b9050919050565b7f4e487b7100000000000000000000000000000000000000000000000000000000600052601160045260246000fd5b60006200079b82620004a1565b9150620007a883620004a1565b9250828201905080821115620007c357620007c26200075f565b5b92915050565b620007d481620004a1565b82525050565b6000602082019050620007f16000830184620007c9565b92915050565b61253c80620008076000396000f3fe60806040526004361061010d5760003560e01c8063715018a611610095578063a694fc3a11610064578063a694fc3a1461039e578063a9059cbb146103c7578063c2a672e014610404578063dd62ed3e1461042d578063f2fde38b1461046a57610114565b8063715018a6146102f45780638da5cb5b1461030b57806395d89b4114610336578063a457c2d71461036157610114565b8063313ce567116100dc578063313ce567146101e9578063395093511461021457806340c10f191461025157806345bc78ab1461027a57806370a08231146102b757610114565b806306fdde0314610119578063095ea7b31461014457806318160ddd1461018157806323b872dd146101ac57610114565b3661011457005b600080fd5b34801561012557600080fd5b5061012e610493565b60405161013b91906118ca565b60405180910390f35b34801561015057600080fd5b5061016b60048036038101906101669190611985565b610525565b60405161017891906119e0565b60405180910390f35b34801561018d57600080fd5b50610196610548565b6040516101a39190611a0a565b60405180910390f35b3480156101b857600080fd5b506101d360048036038101906101ce9190611a25565b610552565b6040516101e091906119e0565b60405180910390f35b3480156101f557600080fd5b506101fe610581565b60405161020b9190611a94565b60405180910390f35b34801561022057600080fd5b5061023b60048036038101906102369190611985565b61058a565b60405161024891906119e0565b60405180910390f35b34801561025d57600080fd5b5061027860048036038101906102739190611985565b6105c1565b005b34801561028657600080fd5b506102a1600480360381019061029c9190611aaf565b61069c565b6040516102ae9190611a0a565b60405180910390f35b3480156102c357600080fd5b506102de60048036038101906102d99190611aaf565b6106b4565b6040516102eb9190611a0a565b60405180910390f35b34801561030057600080fd5b506103096106fc565b005b34801561031757600080fd5b50610320610710565b60405161032d9190611aeb565b60405180910390f35b34801561034257600080fd5b5061034b61073a565b60405161035891906118ca565b60405180910390f35b34801561036d57600080fd5b5061038860048036038101906103839190611985565b6107cc565b60405161039591906119e0565b60405180910390f35b3480156103aa57600080fd5b506103c560048036038101906103c09190611b06565b610843565b005b3480156103d357600080fd5b506103ee60048036038101906103e99190611985565b610a32565b6040516103fb91906119e0565b60405180910390f35b34801561041057600080fd5b5061042b60048036038101906104269190611b71565b610a55565b005b34801561043957600080fd5b50610454600480360381019061044f9190611bb1565b610c9c565b6040516104619190611a0a565b60405180910390f35b34801561047657600080fd5b50610491600480360381019061048c9190611aaf565b610d23565b005b6060600380546104a290611c20565b80601f01602080910402602001604051908101604052809291908181526020018280546104ce90611c20565b801561051b5780601f106104f05761010080835404028352916020019161051b565b820191906000526020600020905b8154815290600101906020018083116104fe57829003601f168201915b5050505050905090565b600080610530610da6565b905061053d818585610dae565b600191505092915050565b6000600254905090565b60008061055d610da6565b905061056a858285610f77565b610575858585611003565b60019150509392505050565b60006012905090565b600080610595610da6565b90506105b68185856105a78589610c9c565b6105b19190611c80565b610dae565b600191505092915050565b6105d567d450ebbd35aecfdf60c01b611279565b6105dd61127c565b6105f167a22e1648db8091ff60c01b611279565b6106056708025c7ee62a79bf60c01b611279565b6106196756b20e24b9a200ab60c01b611279565b61062d67045da02a61396f0e60c01b611279565b61063782826112fa565b61064b6799a7acea372dfa0e60c01b611279565b61065f679b63dc6efb0a69e160c01b611279565b7f2d8eb9b9558d4b5ef1d238622692f6156d5822009340e26ab15fac05d64c12f08282604051610690929190611cb4565b60405180910390a15050565b60066020528060005260406000206000915090505481565b60008060008373ffffffffffffffffffffffffffffffffffffffff1673ffffffffffffffffffffffffffffffffffffffff168152602001908152602001600020549050919050565b61070461127c565b61070e6000611450565b565b6000600560009054906101000a900473ffffffffffffffffffffffffffffffffffffffff16905090565b60606004805461074990611c20565b80601f016020809104026020016040519081016040528092919081815260200182805461077590611c20565b80156107c25780601f10610797576101008083540402835291602001916107c2565b820191906000526020600020905b8154815290600101906020018083116107a557829003601f168201915b5050505050905090565b6000806107d7610da6565b905060006107e58286610c9c565b90508381101561082a576040517f08c379a000000000000000000000000000000000000000000000000000000000815260040161082190611d4f565b60405180910390fd5b6108378286868403610dae565b60019250505092915050565b610857676294b083789df1e060c01b611279565b61086b6752b37e319f96782760c01b611279565b61087f674f5c491ce1e65f5160c01b611279565b61089367f9342e352c783d9f60c01b611279565b8061089d336106b4565b10156108de576040517f08c379a00000000000000000000000000000000000000000000000000000000081526004016108d590611dbb565b60405180910390fd5b6108f267f5a5397889b2156b60c01b611279565b61090667ba8790c61dbfa0ff60c01b611279565b61091a678858a740c192687d60c01b611279565b6109243082610a32565b5061093967abb20940f8d58d6760c01b611279565b80600660003373ffffffffffffffffffffffffffffffffffffffff1673ffffffffffffffffffffffffffffffffffffffff16815260200190815260200160002060008282546109889190611c80565b925050819055506109a3673e16c7ff129448b360c01b611279565b6109b7679422abbccf819b5360c01b611279565b7fc5d58a13b12e3f82ded057a6095d1f70172889d9fa621c4d04a4a38028a5c02e33600660003373ffffffffffffffffffffffffffffffffffffffff1673ffffffffffffffffffffffffffffffffffffffff16815260200190815260200160002054604051610a27929190611cb4565b60405180910390a150565b600080610a3d610da6565b9050610a4a818585611003565b600191505092915050565b610a6967d1da9b7b665ed34d60c01b611279565b610a7d67f1654419bfb0cb8060c01b611279565b610a91679d26746caa16315360c01b611279565b610aa5672a549ece36bdee7460c01b611279565b80600660003373ffffffffffffffffffffffffffffffffffffffff1673ffffffffffffffffffffffffffffffffffffffff168152602001908152602001600020541015610b27576040517f08c379a0000000000000000000000000000000000000000000000000000000008152600401610b1e90611dbb565b60405180910390fd5b610b3b672ec9a67a97a279fd60c01b611279565b610b4f670481d815cc341e9c60c01b611279565b610b6367cb5fb73cf0fb810d60c01b611279565b610b8e33828473ffffffffffffffffffffffffffffffffffffffff166115169092919063ffffffff16565b610ba2673fec34ccc94e839460c01b611279565b80600660003373ffffffffffffffffffffffffffffffffffffffff1673ffffffffffffffffffffffffffffffffffffffff1681526020019081526020016000206000828254610bf19190611ddb565b92505081905550610c0c6768e17f209f40ef5f60c01b611279565b610c206787914335723fda1b60c01b611279565b7fc5d58a13b12e3f82ded057a6095d1f70172889d9fa621c4d04a4a38028a5c02e33600660003373ffffffffffffffffffffffffffffffffffffffff1673ffffffffffffffffffffffffffffffffffffffff16815260200190815260200160002054604051610c90929190611cb4565b60405180910390a15050565b6000600160008473ffffffffffffffffffffffffffffffffffffffff1673ffffffffffffffffffffffffffffffffffffffff16815260200190815260200160002060008373ffffffffffffffffffffffffffffffffffffffff1673ffffffffffffffffffffffffffffffffffffffff16815260200190815260200160002054905092915050565b610d2b61127c565b600073ffffffffffffffffffffffffffffffffffffffff168173ffffffffffffffffffffffffffffffffffffffff1603610d9a576040517f08c379a0000000000000000000000000000000000000000000000000000000008152600401610d9190611e81565b60405180910390fd5b610da381611450565b50565b600033905090565b600073ffffffffffffffffffffffffffffffffffffffff168373ffffffffffffffffffffffffffffffffffffffff1603610e1d576040517f08c379a0000000000000000000000000000000000000000000000000000000008152600401610e1490611f13565b60405180910390fd5b600073ffffffffffffffffffffffffffffffffffffffff168273ffffffffffffffffffffffffffffffffffffffff1603610e8c576040517f08c379a0000000000000000000000000000000000000000000000000000000008152600401610e8390611fa5565b60405180910390fd5b80600160008573ffffffffffffffffffffffffffffffffffffffff1673ffffffffffffffffffffffffffffffffffffffff16815260200190815260200160002060008473ffffffffffffffffffffffffffffffffffffffff1673ffffffffffffffffffffffffffffffffffffffff168152602001908152602001600020819055508173ffffffffffffffffffffffffffffffffffffffff168373ffffffffffffffffffffffffffffffffffffffff167f8c5be1e5ebec7d5bd14f71427d1e84f3dd0314c0f7b2291e5b200ac8c7c3b92583604051610f6a9190611a0a565b60405180910390a3505050565b6000610f838484610c9c565b90507fffffffffffffffffffffffffffffffffffffffffffffffffffffffffffffffff8114610ffd5781811015610fef576040517f08c379a0000000000000000000000000000000000000000000000000000000008152600401610fe690612011565b60405180910390fd5b610ffc8484848403610dae565b5b50505050565b600073ffffffffffffffffffffffffffffffffffffffff168373ffffffffffffffffffffffffffffffffffffffff1603611072576040517f08c379a0000000000000000000000000000000000000000000000000000000008152600401611069906120a3565b60405180910390fd5b600073ffffffffffffffffffffffffffffffffffffffff168273ffffffffffffffffffffffffffffffffffffffff16036110e1576040517f08c379a00000000000000000000000000000000000000000000000000000000081526004016110d890612135565b60405180910390fd5b6110ec83838361159c565b60008060008573ffffffffffffffffffffffffffffffffffffffff1673ffffffffffffffffffffffffffffffffffffffff16815260200190815260200160002054905081811015611172576040517f08c379a0000000000000000000000000000000000000000000000000000000008152600401611169906121c7565b60405180910390fd5b8181036000808673ffffffffffffffffffffffffffffffffffffffff1673ffffffffffffffffffffffffffffffffffffffff16815260200190815260200160002081905550816000808573ffffffffffffffffffffffffffffffffffffffff1673ffffffffffffffffffffffffffffffffffffffff168152602001908152602001600020600082825401925050819055508273ffffffffffffffffffffffffffffffffffffffff168473ffffffffffffffffffffffffffffffffffffffff167fddf252ad1be2c89b69c2b068fc378daa952ba7f163c4a11628f55a4df523b3ef846040516112609190611a0a565b60405180910390a36112738484846115a1565b50505050565b50565b611284610da6565b73ffffffffffffffffffffffffffffffffffffffff166112a2610710565b73ffffffffffffffffffffffffffffffffffffffff16146112f8576040517f08c379a00000000000000000000000000000000000000000000000000000000081526004016112ef90612233565b60405180910390fd5b565b600073ffffffffffffffffffffffffffffffffffffffff168273ffffffffffffffffffffffffffffffffffffffff1603611369576040517f08c379a00000000000000000000000000000000000000000000000000000000081526004016113609061229f565b60405180910390fd5b6113756000838361159c565b80600260008282546113879190611c80565b92505081905550806000808473ffffffffffffffffffffffffffffffffffffffff1673ffffffffffffffffffffffffffffffffffffffff168152602001908152602001600020600082825401925050819055508173ffffffffffffffffffffffffffffffffffffffff16600073ffffffffffffffffffffffffffffffffffffffff167fddf252ad1be2c89b69c2b068fc378daa952ba7f163c4a11628f55a4df523b3ef836040516114389190611a0a565b60405180910390a361144c600083836115a1565b5050565b6000600560009054906101000a900473ffffffffffffffffffffffffffffffffffffffff16905081600560006101000a81548173ffffffffffffffffffffffffffffffffffffffff021916908373ffffffffffffffffffffffffffffffffffffffff1602179055508173ffffffffffffffffffffffffffffffffffffffff168173ffffffffffffffffffffffffffffffffffffffff167f8be0079c531659141344cd1fd0a4f28419497f9722a3daafe3b4186f6b6457e060405160405180910390a35050565b6115978363a9059cbb60e01b8484604051602401611535929190611cb4565b604051602081830303815290604052907bffffffffffffffffffffffffffffffffffffffffffffffffffffffff19166020820180517bffffffffffffffffffffffffffffffffffffffffffffffffffffffff83818316178352505050506115a6565b505050565b505050565b505050565b6000611608826040518060400160405280602081526020017f5361666545524332303a206c6f772d6c6576656c2063616c6c206661696c65648152508573ffffffffffffffffffffffffffffffffffffffff1661166d9092919063ffffffff16565b9050600081511115611668578080602001905181019061162891906122eb565b611667576040517f08c379a000000000000000000000000000000000000000000000000000000000815260040161165e9061238a565b60405180910390fd5b5b505050565b606061167c8484600085611685565b90509392505050565b6060824710156116ca576040517f08c379a00000000000000000000000000000000000000000000000000000000081526004016116c19061241c565b60405180910390fd5b6000808673ffffffffffffffffffffffffffffffffffffffff1685876040516116f39190612483565b60006040518083038185875af1925050503d8060008114611730576040519150601f19603f3d011682016040523d82523d6000602084013e611735565b606091505b509150915061174687838387611752565b92505050949350505050565b606083156117b45760008351036117ac5761176c856117c7565b6117ab576040517f08c379a00000000000000000000000000000000000000000000000000000000081526004016117a2906124e6565b60405180910390fd5b5b8290506117bf565b6117be83836117ea565b5b949350505050565b6000808273ffffffffffffffffffffffffffffffffffffffff163b119050919050565b6000825111156117fd5781518083602001fd5b806040517f08c379a000000000000000000000000000000000000000000000000000000000815260040161183191906118ca565b60405180910390fd5b600081519050919050565b600082825260208201905092915050565b60005b83811015611874578082015181840152602081019050611859565b60008484015250505050565b6000601f19601f8301169050919050565b600061189c8261183a565b6118a68185611845565b93506118b6818560208601611856565b6118bf81611880565b840191505092915050565b600060208201905081810360008301526118e48184611891565b905092915050565b600080fd5b600073ffffffffffffffffffffffffffffffffffffffff82169050919050565b600061191c826118f1565b9050919050565b61192c81611911565b811461193757600080fd5b50565b60008135905061194981611923565b92915050565b6000819050919050565b6119628161194f565b811461196d57600080fd5b50565b60008135905061197f81611959565b92915050565b6000806040838503121561199c5761199b6118ec565b5b60006119aa8582860161193a565b92505060206119bb85828601611970565b9150509250929050565b60008115159050919050565b6119da816119c5565b82525050565b60006020820190506119f560008301846119d1565b92915050565b611a048161194f565b82525050565b6000602082019050611a1f60008301846119fb565b92915050565b600080600060608486031215611a3e57611a3d6118ec565b5b6000611a4c8682870161193a565b9350506020611a5d8682870161193a565b9250506040611a6e86828701611970565b9150509250925092565b600060ff82169050919050565b611a8e81611a78565b82525050565b6000602082019050611aa96000830184611a85565b92915050565b600060208284031215611ac557611ac46118ec565b5b6000611ad38482850161193a565b91505092915050565b611ae581611911565b82525050565b6000602082019050611b006000830184611adc565b92915050565b600060208284031215611b1c57611b1b6118ec565b5b6000611b2a84828501611970565b91505092915050565b6000611b3e82611911565b9050919050565b611b4e81611b33565b8114611b5957600080fd5b50565b600081359050611b6b81611b45565b92915050565b60008060408385031215611b8857611b876118ec565b5b6000611b9685828601611b5c565b9250506020611ba785828601611970565b9150509250929050565b60008060408385031215611bc857611bc76118ec565b5b6000611bd68582860161193a565b9250506020611be78582860161193a565b9150509250929050565b7f4e487b7100000000000000000000000000000000000000000000000000000000600052602260045260246000fd5b60006002820490506001821680611c3857607f821691505b602082108103611c4b57611c4a611bf1565b5b50919050565b7f4e487b7100000000000000000000000000000000000000000000000000000000600052601160045260246000fd5b6000611c8b8261194f565b9150611c968361194f565b9250828201905080821115611cae57611cad611c51565b5b92915050565b6000604082019050611cc96000830185611adc565b611cd660208301846119fb565b9392505050565b7f45524332303a2064656372656173656420616c6c6f77616e63652062656c6f7760008201527f207a65726f000000000000000000000000000000000000000000000000000000602082015250565b6000611d39602583611845565b9150611d4482611cdd565b604082019050919050565b60006020820190508181036000830152611d6881611d2c565b9050919050565b7f6e6f7420656e6f75676820746f6b656e00000000000000000000000000000000600082015250565b6000611da5601083611845565b9150611db082611d6f565b602082019050919050565b60006020820190508181036000830152611dd481611d98565b9050919050565b6000611de68261194f565b9150611df18361194f565b9250828203905081811115611e0957611e08611c51565b5b92915050565b7f4f776e61626c653a206e6577206f776e657220697320746865207a65726f206160008201527f6464726573730000000000000000000000000000000000000000000000000000602082015250565b6000611e6b602683611845565b9150611e7682611e0f565b604082019050919050565b60006020820190508181036000830152611e9a81611e5e565b9050919050565b7f45524332303a20617070726f76652066726f6d20746865207a65726f2061646460008201527f7265737300000000000000000000000000000000000000000000000000000000602082015250565b6000611efd602483611845565b9150611f0882611ea1565b604082019050919050565b60006020820190508181036000830152611f2c81611ef0565b9050919050565b7f45524332303a20617070726f766520746f20746865207a65726f20616464726560008201527f7373000000000000000000000000000000000000000000000000000000000000602082015250565b6000611f8f602283611845565b9150611f9a82611f33565b604082019050919050565b60006020820190508181036000830152611fbe81611f82565b9050919050565b7f45524332303a20696e73756666696369656e7420616c6c6f77616e6365000000600082015250565b6000611ffb601d83611845565b915061200682611fc5565b602082019050919050565b6000602082019050818103600083015261202a81611fee565b9050919050565b7f45524332303a207472616e736665722066726f6d20746865207a65726f20616460008201527f6472657373000000000000000000000000000000000000000000000000000000602082015250565b600061208d602583611845565b915061209882612031565b604082019050919050565b600060208201905081810360008301526120bc81612080565b9050919050565b7f45524332303a207472616e7366657220746f20746865207a65726f206164647260008201527f6573730000000000000000000000000000000000000000000000000000000000602082015250565b600061211f602383611845565b915061212a826120c3565b604082019050919050565b6000602082019050818103600083015261214e81612112565b9050919050565b7f45524332303a207472616e7366657220616d6f756e742065786365656473206260008201527f616c616e63650000000000000000000000000000000000000000000000000000602082015250565b60006121b1602683611845565b91506121bc82612155565b604082019050919050565b600060208201905081810360008301526121e0816121a4565b9050919050565b7f4f776e61626c653a2063616c6c6572206973206e6f7420746865206f776e6572600082015250565b600061221d602083611845565b9150612228826121e7565b602082019050919050565b6000602082019050818103600083015261224c81612210565b9050919050565b7f45524332303a206d696e7420746f20746865207a65726f206164647265737300600082015250565b6000612289601f83611845565b915061229482612253565b602082019050919050565b600060208201905081810360008301526122b88161227c565b9050919050565b6122c8816119c5565b81146122d357600080fd5b50565b6000815190506122e5816122bf565b92915050565b600060208284031215612301576123006118ec565b5b600061230f848285016122d6565b91505092915050565b7f5361666545524332303a204552433230206f7065726174696f6e20646964206e60008201527f6f74207375636365656400000000000000000000000000000000000000000000602082015250565b6000612374602a83611845565b915061237f82612318565b604082019050919050565b600060208201905081810360008301526123a381612367565b9050919050565b7f416464726573733a20696e73756666696369656e742062616c616e636520666f60008201527f722063616c6c0000000000000000000000000000000000000000000000000000602082015250565b6000612406602683611845565b9150612411826123aa565b604082019050919050565b60006020820190508181036000830152612435816123f9565b9050919050565b600081519050919050565b600081905092915050565b600061245d8261243c565b6124678185612447565b9350612477818560208601611856565b80840191505092915050565b600061248f8284612452565b915081905092915050565b7f416464726573733a2063616c6c20746f206e6f6e2d636f6e7472616374000000600082015250565b60006124d0601d83611845565b91506124db8261249a565b602082019050919050565b600060208201905081810360008301526124ff816124c3565b905091905056fea26469706673582212201934bae1daa207727780636109c1a720b570605c994106fa32fdbb9820ca7ca764736f6c63430008110033",
  "linkReferences": {},
  "deployedLinkReferences": {}
}