{
  "_format": "hh-sol-artifact-1",
  "contractName": "Staking",
  "sourceName": "contracts/Staking.sol",
  "abi": [
    {
      "inputs": [],
      "stateMutability": "nonpayable",
      "type": "constructor"
    },
    {
      "anonymous": false,
      "inputs": [
        {
          "indexed": true,
          "internalType": "address",
          "name": "owner",
          "type": "address"
        },
        {
          "indexed": true,
          "internalType": "address",
          "name": "spender",
          "type": "address"
        },
        {
          "indexed": false,
          "internalType": "uint256",
          "name": "value",
          "type": "uint256"
        }
      ],
      "name": "Approval",
      "type": "event"
    },
    {
      "anonymous": false,
      "inputs": [
        {
          "indexed": true,
          "internalType": "address",
          "name": "previousOwner",
          "type": "address"
        },
        {
          "indexed": true,
          "internalType": "address",
          "name": "newOwner",
          "type": "address"
        }
      ],
      "name": "OwnershipTransferred",
      "type": "event"
    },
    {
      "anonymous": false,
      "inputs": [
        {
          "indexed": true,
          "internalType": "address",
          "name": "from",
          "type": "address"
        },
        {
          "indexed": true,
          "internalType": "address",
          "name": "to",
          "type": "address"
        },
        {
          "indexed": false,
          "internalType": "uint256",
          "name": "value",
          "type": "uint256"
        }
      ],
      "name": "Transfer",
      "type": "event"
    },
    {
      "anonymous": false,
      "inputs": [
        {
          "indexed": false,
          "internalType": "address",
          "name": "account",
          "type": "address"
        },
        {
          "indexed": false,
          "internalType": "uint256",
          "name": "value",
          "type": "uint256"
        }
      ],
      "name": "stakingBalanceUpdate",
      "type": "event"
    },
    {
      "anonymous": false,
      "inputs": [
        {
          "indexed": false,
          "internalType": "address",
          "name": "receiver",
          "type": "address"
        },
        {
          "indexed": false,
          "internalType": "uint256",
          "name": "amountMinted",
          "type": "uint256"
        }
      ],
      "name": "tokenMinted",
      "type": "event"
    },
    {
      "inputs": [
        {
          "internalType": "address",
          "name": "owner",
          "type": "address"
        },
        {
          "internalType": "address",
          "name": "spender",
          "type": "address"
        }
      ],
      "name": "allowance",
      "outputs": [
        {
          "internalType": "uint256",
          "name": "",
          "type": "uint256"
        }
      ],
      "stateMutability": "view",
      "type": "function"
    },
    {
      "inputs": [
        {
          "internalType": "address",
          "name": "spender",
          "type": "address"
        },
        {
          "internalType": "uint256",
          "name": "amount",
          "type": "uint256"
        }
      ],
      "name": "approve",
      "outputs": [
        {
          "internalType": "bool",
          "name": "",
          "type": "bool"
        }
      ],
      "stateMutability": "nonpayable",
      "type": "function"
    },
    {
      "inputs": [
        {
          "internalType": "address",
          "name": "account",
          "type": "address"
        }
      ],
      "name": "balanceOf",
      "outputs": [
        {
          "internalType": "uint256",
          "name": "",
          "type": "uint256"
        }
      ],
      "stateMutability": "view",
      "type": "function"
    },
    {
      "inputs": [],
      "name": "decimals",
      "outputs": [
        {
          "internalType": "uint8",
          "name": "",
          "type": "uint8"
        }
      ],
      "stateMutability": "view",
      "type": "function"
    },
    {
      "inputs": [
        {
          "internalType": "address",
          "name": "spender",
          "type": "address"
        },
        {
          "internalType": "uint256",
          "name": "subtractedValue",
          "type": "uint256"
        }
      ],
      "name": "decreaseAllowance",
      "outputs": [
        {
          "internalType": "bool",
          "name": "",
          "type": "bool"
        }
      ],
      "stateMutability": "nonpayable",
      "type": "function"
    },
    {
      "inputs": [
        {
          "internalType": "address",
          "name": "_address",
          "type": "address"
        }
      ],
      "name": "getStakedBalance",
      "outputs": [
        {
          "internalType": "uint256",
          "name": "",
          "type": "uint256"
        }
      ],
      "stateMutability": "view",
      "type": "function"
    },
    {
      "inputs": [
        {
          "internalType": "address",
          "name": "spender",
          "type": "address"
        },
        {
          "internalType": "uint256",
          "name": "addedValue",
          "type": "uint256"
        }
      ],
      "name": "increaseAllowance",
      "outputs": [
        {
          "internalType": "bool",
          "name": "",
          "type": "bool"
        }
      ],
      "stateMutability": "nonpayable",
      "type": "function"
    },
    {
      "inputs": [
        {
          "internalType": "address",
          "name": "to",
          "type": "address"
        },
        {
          "internalType": "uint256",
          "name": "amount",
          "type": "uint256"
        }
      ],
      "name": "mint",
      "outputs": [],
      "stateMutability": "nonpayable",
      "type": "function"
    },
    {
      "inputs": [],
      "name": "name",
      "outputs": [
        {
          "internalType": "string",
          "name": "",
          "type": "string"
        }
      ],
      "stateMutability": "view",
      "type": "function"
    },
    {
      "inputs": [],
      "name": "owner",
      "outputs": [
        {
          "internalType": "address",
          "name": "",
          "type": "address"
        }
      ],
      "stateMutability": "view",
      "type": "function"
    },
    {
      "inputs": [],
      "name": "renounceOwnership",
      "outputs": [],
      "stateMutability": "nonpayable",
      "type": "function"
    },
    {
      "inputs": [
        {
          "internalType": "uint256",
          "name": "amount",
          "type": "uint256"
        }
      ],
      "name": "stake",
      "outputs": [],
      "stateMutability": "nonpayable",
      "type": "function"
    },
    {
      "inputs": [
        {
          "internalType": "address",
          "name": "",
          "type": "address"
        }
      ],
      "name": "stakingBalance",
      "outputs": [
        {
          "internalType": "uint256",
          "name": "",
          "type": "uint256"
        }
      ],
      "stateMutability": "view",
      "type": "function"
    },
    {
      "inputs": [],
      "name": "symbol",
      "outputs": [
        {
          "internalType": "string",
          "name": "",
          "type": "string"
        }
      ],
      "stateMutability": "view",
      "type": "function"
    },
    {
      "inputs": [],
      "name": "totalSupply",
      "outputs": [
        {
          "internalType": "uint256",
          "name": "",
          "type": "uint256"
        }
      ],
      "stateMutability": "view",
      "type": "function"
    },
    {
      "inputs": [
        {
          "internalType": "address",
          "name": "to",
          "type": "address"
        },
        {
          "internalType": "uint256",
          "name": "amount",
          "type": "uint256"
        }
      ],
      "name": "transfer",
      "outputs": [
        {
          "internalType": "bool",
          "name": "",
          "type": "bool"
        }
      ],
      "stateMutability": "nonpayable",
      "type": "function"
    },
    {
      "inputs": [
        {
          "internalType": "address",
          "name": "from",
          "type": "address"
        },
        {
          "internalType": "address",
          "name": "to",
          "type": "address"
        },
        {
          "internalType": "uint256",
          "name": "amount",
          "type": "uint256"
        }
      ],
      "name": "transferFrom",
      "outputs": [
        {
          "internalType": "bool",
          "name": "",
          "type": "bool"
        }
      ],
      "stateMutability": "nonpayable",
      "type": "function"
    },
    {
      "inputs": [
        {
          "internalType": "address",
          "name": "newOwner",
          "type": "address"
        }
      ],
      "name": "transferOwnership",
      "outputs": [],
      "stateMutability": "nonpayable",
      "type": "function"
    },
    {
      "inputs": [
        {
          "internalType": "contract IERC20",
          "name": "token",
          "type": "address"
        },
        {
          "internalType": "uint256",
          "name": "amount",
          "type": "uint256"
        }
      ],
      "name": "unstake",
      "outputs": [],
      "stateMutability": "nonpayable",
      "type": "function"
    },
    {
      "stateMutability": "payable",
      "type": "receive"
    }
  ],
  "bytecode": "0x60806040523480156200001157600080fd5b506040518060400160405280600881526020017f646a65546f6b656e0000000000000000000000000000000000000000000000008152506040518060400160405280600381526020017f44544b000000000000000000000000000000000000000000000000000000000081525081600390816200008f9190620005a5565b508060049081620000a19190620005a5565b505050620000c4620000b8620000e660201b60201c565b620000ee60201b60201c565b620000e03369d3c21bcecceda1000000620001b460201b60201c565b620007a7565b600033905090565b6000600560009054906101000a900473ffffffffffffffffffffffffffffffffffffffff16905081600560006101000a81548173ffffffffffffffffffffffffffffffffffffffff021916908373ffffffffffffffffffffffffffffffffffffffff1602179055508173ffffffffffffffffffffffffffffffffffffffff168173ffffffffffffffffffffffffffffffffffffffff167f8be0079c531659141344cd1fd0a4f28419497f9722a3daafe3b4186f6b6457e060405160405180910390a35050565b600073ffffffffffffffffffffffffffffffffffffffff168273ffffffffffffffffffffffffffffffffffffffff160362000226576040517f08c379a00000000000000000000000000000000000000000000000000000000081526004016200021d90620006ed565b60405180910390fd5b6200023a600083836200032160201b60201c565b80600260008282546200024e91906200073e565b92505081905550806000808473ffffffffffffffffffffffffffffffffffffffff1673ffffffffffffffffffffffffffffffffffffffff168152602001908152602001600020600082825401925050819055508173ffffffffffffffffffffffffffffffffffffffff16600073ffffffffffffffffffffffffffffffffffffffff167fddf252ad1be2c89b69c2b068fc378daa952ba7f163c4a11628f55a4df523b3ef836040516200030191906200078a565b60405180910390a36200031d600083836200032660201b60201c565b5050565b505050565b505050565b600081519050919050565b7f4e487b7100000000000000000000000000000000000000000000000000000000600052604160045260246000fd5b7f4e487b7100000000000000000000000000000000000000000000000000000000600052602260045260246000fd5b60006002820490506001821680620003ad57607f821691505b602082108103620003c357620003c262000365565b5b50919050565b60008190508160005260206000209050919050565b60006020601f8301049050919050565b600082821b905092915050565b6000600883026200042d7fffffffffffffffffffffffffffffffffffffffffffffffffffffffffffffffff82620003ee565b620004398683620003ee565b95508019841693508086168417925050509392505050565b6000819050919050565b6000819050919050565b600062000486620004806200047a8462000451565b6200045b565b62000451565b9050919050565b6000819050919050565b620004a28362000465565b620004ba620004b1826200048d565b848454620003fb565b825550505050565b600090565b620004d1620004c2565b620004de81848462000497565b505050565b5b818110156200050657620004fa600082620004c7565b600181019050620004e4565b5050565b601f82111562000555576200051f81620003c9565b6200052a84620003de565b810160208510156200053a578190505b620005526200054985620003de565b830182620004e3565b50505b505050565b600082821c905092915050565b60006200057a600019846008026200055a565b1980831691505092915050565b600062000595838362000567565b9150826002028217905092915050565b620005b0826200032b565b67ffffffffffffffff811115620005cc57620005cb62000336565b5b620005d8825462000394565b620005e58282856200050a565b600060209050601f8311600181146200061d576000841562000608578287015190505b62000614858262000587565b86555062000684565b601f1984166200062d86620003c9565b60005b82811015620006575784890151825560018201915060208501945060208101905062000630565b8683101562000677578489015162000673601f89168262000567565b8355505b6001600288020188555050505b505050505050565b600082825260208201905092915050565b7f45524332303a206d696e7420746f20746865207a65726f206164647265737300600082015250565b6000620006d5601f836200068c565b9150620006e2826200069d565b602082019050919050565b600060208201905081810360008301526200070881620006c6565b9050919050565b7f4e487b7100000000000000000000000000000000000000000000000000000000600052601160045260246000fd5b60006200074b8262000451565b9150620007588362000451565b92508282019050808211156200077357620007726200070f565b5b92915050565b620007848162000451565b82525050565b6000602082019050620007a1600083018462000779565b92915050565b6123ae80620007b76000396000f3fe6080604052600436106101185760003560e01c806370a08231116100a0578063a694fc3a11610064578063a694fc3a146103e6578063a9059cbb1461040f578063c2a672e01461044c578063dd62ed3e14610475578063f2fde38b146104b25761011f565b806370a08231146102ff578063715018a61461033c5780638da5cb5b1461035357806395d89b411461037e578063a457c2d7146103a95761011f565b8063313ce567116100e7578063313ce567146101f4578063395093511461021f5780633a02a42d1461025c57806340c10f191461029957806345bc78ab146102c25761011f565b806306fdde0314610124578063095ea7b31461014f57806318160ddd1461018c57806323b872dd146101b75761011f565b3661011f57005b600080fd5b34801561013057600080fd5b506101396104db565b604051610146919061173c565b60405180910390f35b34801561015b57600080fd5b50610176600480360381019061017191906117f7565b61056d565b6040516101839190611852565b60405180910390f35b34801561019857600080fd5b506101a1610590565b6040516101ae919061187c565b60405180910390f35b3480156101c357600080fd5b506101de60048036038101906101d99190611897565b61059a565b6040516101eb9190611852565b60405180910390f35b34801561020057600080fd5b506102096105c9565b6040516102169190611906565b60405180910390f35b34801561022b57600080fd5b50610246600480360381019061024191906117f7565b6105d2565b6040516102539190611852565b60405180910390f35b34801561026857600080fd5b50610283600480360381019061027e9190611921565b610609565b604051610290919061187c565b60405180910390f35b3480156102a557600080fd5b506102c060048036038101906102bb91906117f7565b610652565b005b3480156102ce57600080fd5b506102e960048036038101906102e49190611921565b6106a1565b6040516102f6919061187c565b60405180910390f35b34801561030b57600080fd5b5061032660048036038101906103219190611921565b6106b9565b604051610333919061187c565b60405180910390f35b34801561034857600080fd5b50610351610701565b005b34801561035f57600080fd5b50610368610715565b604051610375919061195d565b60405180910390f35b34801561038a57600080fd5b5061039361073f565b6040516103a0919061173c565b60405180910390f35b3480156103b557600080fd5b506103d060048036038101906103cb91906117f7565b6107d1565b6040516103dd9190611852565b60405180910390f35b3480156103f257600080fd5b5061040d60048036038101906104089190611978565b610848565b005b34801561041b57600080fd5b50610436600480360381019061043191906117f7565b61096f565b6040516104439190611852565b60405180910390f35b34801561045857600080fd5b50610473600480360381019061046e91906119e3565b610992565b005b34801561048157600080fd5b5061049c60048036038101906104979190611a23565b610b11565b6040516104a9919061187c565b60405180910390f35b3480156104be57600080fd5b506104d960048036038101906104d49190611921565b610b98565b005b6060600380546104ea90611a92565b80601f016020809104026020016040519081016040528092919081815260200182805461051690611a92565b80156105635780601f1061053857610100808354040283529160200191610563565b820191906000526020600020905b81548152906001019060200180831161054657829003601f168201915b5050505050905090565b600080610578610c1b565b9050610585818585610c23565b600191505092915050565b6000600254905090565b6000806105a5610c1b565b90506105b2858285610dec565b6105bd858585610e78565b60019150509392505050565b60006012905090565b6000806105dd610c1b565b90506105fe8185856105ef8589610b11565b6105f99190611af2565b610c23565b600191505092915050565b6000600660008373ffffffffffffffffffffffffffffffffffffffff1673ffffffffffffffffffffffffffffffffffffffff168152602001908152602001600020549050919050565b61065a6110ee565b610664828261116c565b7f2d8eb9b9558d4b5ef1d238622692f6156d5822009340e26ab15fac05d64c12f08282604051610695929190611b26565b60405180910390a15050565b60066020528060005260406000206000915090505481565b60008060008373ffffffffffffffffffffffffffffffffffffffff1673ffffffffffffffffffffffffffffffffffffffff168152602001908152602001600020549050919050565b6107096110ee565b61071360006112c2565b565b6000600560009054906101000a900473ffffffffffffffffffffffffffffffffffffffff16905090565b60606004805461074e90611a92565b80601f016020809104026020016040519081016040528092919081815260200182805461077a90611a92565b80156107c75780601f1061079c576101008083540402835291602001916107c7565b820191906000526020600020905b8154815290600101906020018083116107aa57829003601f168201915b5050505050905090565b6000806107dc610c1b565b905060006107ea8286610b11565b90508381101561082f576040517f08c379a000000000000000000000000000000000000000000000000000000000815260040161082690611bc1565b60405180910390fd5b61083c8286868403610c23565b60019250505092915050565b80610852336106b9565b1015610893576040517f08c379a000000000000000000000000000000000000000000000000000000000815260040161088a90611c2d565b60405180910390fd5b61089d308261096f565b5080600660003373ffffffffffffffffffffffffffffffffffffffff1673ffffffffffffffffffffffffffffffffffffffff16815260200190815260200160002060008282546108ed9190611af2565b925050819055507fc5d58a13b12e3f82ded057a6095d1f70172889d9fa621c4d04a4a38028a5c02e33600660003373ffffffffffffffffffffffffffffffffffffffff1673ffffffffffffffffffffffffffffffffffffffff16815260200190815260200160002054604051610964929190611b26565b60405180910390a150565b60008061097a610c1b565b9050610987818585610e78565b600191505092915050565b80600660003373ffffffffffffffffffffffffffffffffffffffff1673ffffffffffffffffffffffffffffffffffffffff168152602001908152602001600020541015610a14576040517f08c379a0000000000000000000000000000000000000000000000000000000008152600401610a0b90611c2d565b60405180910390fd5b610a3f33828473ffffffffffffffffffffffffffffffffffffffff166113889092919063ffffffff16565b80600660003373ffffffffffffffffffffffffffffffffffffffff1673ffffffffffffffffffffffffffffffffffffffff1681526020019081526020016000206000828254610a8e9190611c4d565b925050819055507fc5d58a13b12e3f82ded057a6095d1f70172889d9fa621c4d04a4a38028a5c02e33600660003373ffffffffffffffffffffffffffffffffffffffff1673ffffffffffffffffffffffffffffffffffffffff16815260200190815260200160002054604051610b05929190611b26565b60405180910390a15050565b6000600160008473ffffffffffffffffffffffffffffffffffffffff1673ffffffffffffffffffffffffffffffffffffffff16815260200190815260200160002060008373ffffffffffffffffffffffffffffffffffffffff1673ffffffffffffffffffffffffffffffffffffffff16815260200190815260200160002054905092915050565b610ba06110ee565b600073ffffffffffffffffffffffffffffffffffffffff168173ffffffffffffffffffffffffffffffffffffffff1603610c0f576040517f08c379a0000000000000000000000000000000000000000000000000000000008152600401610c0690611cf3565b60405180910390fd5b610c18816112c2565b50565b600033905090565b600073ffffffffffffffffffffffffffffffffffffffff168373ffffffffffffffffffffffffffffffffffffffff1603610c92576040517f08c379a0000000000000000000000000000000000000000000000000000000008152600401610c8990611d85565b60405180910390fd5b600073ffffffffffffffffffffffffffffffffffffffff168273ffffffffffffffffffffffffffffffffffffffff1603610d01576040517f08c379a0000000000000000000000000000000000000000000000000000000008152600401610cf890611e17565b60405180910390fd5b80600160008573ffffffffffffffffffffffffffffffffffffffff1673ffffffffffffffffffffffffffffffffffffffff16815260200190815260200160002060008473ffffffffffffffffffffffffffffffffffffffff1673ffffffffffffffffffffffffffffffffffffffff168152602001908152602001600020819055508173ffffffffffffffffffffffffffffffffffffffff168373ffffffffffffffffffffffffffffffffffffffff167f8c5be1e5ebec7d5bd14f71427d1e84f3dd0314c0f7b2291e5b200ac8c7c3b92583604051610ddf919061187c565b60405180910390a3505050565b6000610df88484610b11565b90507fffffffffffffffffffffffffffffffffffffffffffffffffffffffffffffffff8114610e725781811015610e64576040517f08c379a0000000000000000000000000000000000000000000000000000000008152600401610e5b90611e83565b60405180910390fd5b610e718484848403610c23565b5b50505050565b600073ffffffffffffffffffffffffffffffffffffffff168373ffffffffffffffffffffffffffffffffffffffff1603610ee7576040517f08c379a0000000000000000000000000000000000000000000000000000000008152600401610ede90611f15565b60405180910390fd5b600073ffffffffffffffffffffffffffffffffffffffff168273ffffffffffffffffffffffffffffffffffffffff1603610f56576040517f08c379a0000000000000000000000000000000000000000000000000000000008152600401610f4d90611fa7565b60405180910390fd5b610f6183838361140e565b60008060008573ffffffffffffffffffffffffffffffffffffffff1673ffffffffffffffffffffffffffffffffffffffff16815260200190815260200160002054905081811015610fe7576040517f08c379a0000000000000000000000000000000000000000000000000000000008152600401610fde90612039565b60405180910390fd5b8181036000808673ffffffffffffffffffffffffffffffffffffffff1673ffffffffffffffffffffffffffffffffffffffff16815260200190815260200160002081905550816000808573ffffffffffffffffffffffffffffffffffffffff1673ffffffffffffffffffffffffffffffffffffffff168152602001908152602001600020600082825401925050819055508273ffffffffffffffffffffffffffffffffffffffff168473ffffffffffffffffffffffffffffffffffffffff167fddf252ad1be2c89b69c2b068fc378daa952ba7f163c4a11628f55a4df523b3ef846040516110d5919061187c565b60405180910390a36110e8848484611413565b50505050565b6110f6610c1b565b73ffffffffffffffffffffffffffffffffffffffff16611114610715565b73ffffffffffffffffffffffffffffffffffffffff161461116a576040517f08c379a0000000000000000000000000000000000000000000000000000000008152600401611161906120a5565b60405180910390fd5b565b600073ffffffffffffffffffffffffffffffffffffffff168273ffffffffffffffffffffffffffffffffffffffff16036111db576040517f08c379a00000000000000000000000000000000000000000000000000000000081526004016111d290612111565b60405180910390fd5b6111e76000838361140e565b80600260008282546111f99190611af2565b92505081905550806000808473ffffffffffffffffffffffffffffffffffffffff1673ffffffffffffffffffffffffffffffffffffffff168152602001908152602001600020600082825401925050819055508173ffffffffffffffffffffffffffffffffffffffff16600073ffffffffffffffffffffffffffffffffffffffff167fddf252ad1be2c89b69c2b068fc378daa952ba7f163c4a11628f55a4df523b3ef836040516112aa919061187c565b60405180910390a36112be60008383611413565b5050565b6000600560009054906101000a900473ffffffffffffffffffffffffffffffffffffffff16905081600560006101000a81548173ffffffffffffffffffffffffffffffffffffffff021916908373ffffffffffffffffffffffffffffffffffffffff1602179055508173ffffffffffffffffffffffffffffffffffffffff168173ffffffffffffffffffffffffffffffffffffffff167f8be0079c531659141344cd1fd0a4f28419497f9722a3daafe3b4186f6b6457e060405160405180910390a35050565b6114098363a9059cbb60e01b84846040516024016113a7929190611b26565b604051602081830303815290604052907bffffffffffffffffffffffffffffffffffffffffffffffffffffffff19166020820180517bffffffffffffffffffffffffffffffffffffffffffffffffffffffff8381831617835250505050611418565b505050565b505050565b505050565b600061147a826040518060400160405280602081526020017f5361666545524332303a206c6f772d6c6576656c2063616c6c206661696c65648152508573ffffffffffffffffffffffffffffffffffffffff166114df9092919063ffffffff16565b90506000815111156114da578080602001905181019061149a919061215d565b6114d9576040517f08c379a00000000000000000000000000000000000000000000000000000000081526004016114d0906121fc565b60405180910390fd5b5b505050565b60606114ee84846000856114f7565b90509392505050565b60608247101561153c576040517f08c379a00000000000000000000000000000000000000000000000000000000081526004016115339061228e565b60405180910390fd5b6000808673ffffffffffffffffffffffffffffffffffffffff16858760405161156591906122f5565b60006040518083038185875af1925050503d80600081146115a2576040519150601f19603f3d011682016040523d82523d6000602084013e6115a7565b606091505b50915091506115b8878383876115c4565b92505050949350505050565b6060831561162657600083510361161e576115de85611639565b61161d576040517f08c379a000000000000000000000000000000000000000000000000000000000815260040161161490612358565b60405180910390fd5b5b829050611631565b611630838361165c565b5b949350505050565b6000808273ffffffffffffffffffffffffffffffffffffffff163b119050919050565b60008251111561166f5781518083602001fd5b806040517f08c379a00000000000000000000000000000000000000000000000000000000081526004016116a3919061173c565b60405180910390fd5b600081519050919050565b600082825260208201905092915050565b60005b838110156116e65780820151818401526020810190506116cb565b60008484015250505050565b6000601f19601f8301169050919050565b600061170e826116ac565b61171881856116b7565b93506117288185602086016116c8565b611731816116f2565b840191505092915050565b600060208201905081810360008301526117568184611703565b905092915050565b600080fd5b600073ffffffffffffffffffffffffffffffffffffffff82169050919050565b600061178e82611763565b9050919050565b61179e81611783565b81146117a957600080fd5b50565b6000813590506117bb81611795565b92915050565b6000819050919050565b6117d4816117c1565b81146117df57600080fd5b50565b6000813590506117f1816117cb565b92915050565b6000806040838503121561180e5761180d61175e565b5b600061181c858286016117ac565b925050602061182d858286016117e2565b9150509250929050565b60008115159050919050565b61184c81611837565b82525050565b60006020820190506118676000830184611843565b92915050565b611876816117c1565b82525050565b6000602082019050611891600083018461186d565b92915050565b6000806000606084860312156118b0576118af61175e565b5b60006118be868287016117ac565b93505060206118cf868287016117ac565b92505060406118e0868287016117e2565b9150509250925092565b600060ff82169050919050565b611900816118ea565b82525050565b600060208201905061191b60008301846118f7565b92915050565b6000602082840312156119375761193661175e565b5b6000611945848285016117ac565b91505092915050565b61195781611783565b82525050565b6000602082019050611972600083018461194e565b92915050565b60006020828403121561198e5761198d61175e565b5b600061199c848285016117e2565b91505092915050565b60006119b082611783565b9050919050565b6119c0816119a5565b81146119cb57600080fd5b50565b6000813590506119dd816119b7565b92915050565b600080604083850312156119fa576119f961175e565b5b6000611a08858286016119ce565b9250506020611a19858286016117e2565b9150509250929050565b60008060408385031215611a3a57611a3961175e565b5b6000611a48858286016117ac565b9250506020611a59858286016117ac565b9150509250929050565b7f4e487b7100000000000000000000000000000000000000000000000000000000600052602260045260246000fd5b60006002820490506001821680611aaa57607f821691505b602082108103611abd57611abc611a63565b5b50919050565b7f4e487b7100000000000000000000000000000000000000000000000000000000600052601160045260246000fd5b6000611afd826117c1565b9150611b08836117c1565b9250828201905080821115611b2057611b1f611ac3565b5b92915050565b6000604082019050611b3b600083018561194e565b611b48602083018461186d565b9392505050565b7f45524332303a2064656372656173656420616c6c6f77616e63652062656c6f7760008201527f207a65726f000000000000000000000000000000000000000000000000000000602082015250565b6000611bab6025836116b7565b9150611bb682611b4f565b604082019050919050565b60006020820190508181036000830152611bda81611b9e565b9050919050565b7f6e6f7420656e6f75676820746f6b656e00000000000000000000000000000000600082015250565b6000611c176010836116b7565b9150611c2282611be1565b602082019050919050565b60006020820190508181036000830152611c4681611c0a565b9050919050565b6000611c58826117c1565b9150611c63836117c1565b9250828203905081811115611c7b57611c7a611ac3565b5b92915050565b7f4f776e61626c653a206e6577206f776e657220697320746865207a65726f206160008201527f6464726573730000000000000000000000000000000000000000000000000000602082015250565b6000611cdd6026836116b7565b9150611ce882611c81565b604082019050919050565b60006020820190508181036000830152611d0c81611cd0565b9050919050565b7f45524332303a20617070726f76652066726f6d20746865207a65726f2061646460008201527f7265737300000000000000000000000000000000000000000000000000000000602082015250565b6000611d6f6024836116b7565b9150611d7a82611d13565b604082019050919050565b60006020820190508181036000830152611d9e81611d62565b9050919050565b7f45524332303a20617070726f766520746f20746865207a65726f20616464726560008201527f7373000000000000000000000000000000000000000000000000000000000000602082015250565b6000611e016022836116b7565b9150611e0c82611da5565b604082019050919050565b60006020820190508181036000830152611e3081611df4565b9050919050565b7f45524332303a20696e73756666696369656e7420616c6c6f77616e6365000000600082015250565b6000611e6d601d836116b7565b9150611e7882611e37565b602082019050919050565b60006020820190508181036000830152611e9c81611e60565b9050919050565b7f45524332303a207472616e736665722066726f6d20746865207a65726f20616460008201527f6472657373000000000000000000000000000000000000000000000000000000602082015250565b6000611eff6025836116b7565b9150611f0a82611ea3565b604082019050919050565b60006020820190508181036000830152611f2e81611ef2565b9050919050565b7f45524332303a207472616e7366657220746f20746865207a65726f206164647260008201527f6573730000000000000000000000000000000000000000000000000000000000602082015250565b6000611f916023836116b7565b9150611f9c82611f35565b604082019050919050565b60006020820190508181036000830152611fc081611f84565b9050919050565b7f45524332303a207472616e7366657220616d6f756e742065786365656473206260008201527f616c616e63650000000000000000000000000000000000000000000000000000602082015250565b60006120236026836116b7565b915061202e82611fc7565b604082019050919050565b6000602082019050818103600083015261205281612016565b9050919050565b7f4f776e61626c653a2063616c6c6572206973206e6f7420746865206f776e6572600082015250565b600061208f6020836116b7565b915061209a82612059565b602082019050919050565b600060208201905081810360008301526120be81612082565b9050919050565b7f45524332303a206d696e7420746f20746865207a65726f206164647265737300600082015250565b60006120fb601f836116b7565b9150612106826120c5565b602082019050919050565b6000602082019050818103600083015261212a816120ee565b9050919050565b61213a81611837565b811461214557600080fd5b50565b60008151905061215781612131565b92915050565b6000602082840312156121735761217261175e565b5b600061218184828501612148565b91505092915050565b7f5361666545524332303a204552433230206f7065726174696f6e20646964206e60008201527f6f74207375636365656400000000000000000000000000000000000000000000602082015250565b60006121e6602a836116b7565b91506121f18261218a565b604082019050919050565b60006020820190508181036000830152612215816121d9565b9050919050565b7f416464726573733a20696e73756666696369656e742062616c616e636520666f60008201527f722063616c6c0000000000000000000000000000000000000000000000000000602082015250565b60006122786026836116b7565b91506122838261221c565b604082019050919050565b600060208201905081810360008301526122a78161226b565b9050919050565b600081519050919050565b600081905092915050565b60006122cf826122ae565b6122d981856122b9565b93506122e98185602086016116c8565b80840191505092915050565b600061230182846122c4565b915081905092915050565b7f416464726573733a2063616c6c20746f206e6f6e2d636f6e7472616374000000600082015250565b6000612342601d836116b7565b915061234d8261230c565b602082019050919050565b6000602082019050818103600083015261237181612335565b905091905056fea2646970667358221220caa3047f5b6da8818bf1c034654a6a7697076bab37dbd0faf4748c4632f7622764736f6c63430008110033",
  "linkReferences": {},
  "deployedLinkReferences": {}
}